:020000040001F9
:10B00000D028002089E50100BBC001009BC10100E0
:10B010000000000000000000000000000000000030
:10B0200000000000000000000000000017C2010046
:10B030000000000000000000C7C401001BC50100A3
:10B0400009DE01009BC80100A5E2010023E6010022
:10B0500067E601000000000061DF0100A3E60100D7
:10B06000A5E60100A7E60100A9E60100ABE60100A4
:10B07000ADE60100AFE60100B1E60100B3E6010074
:10B08000B5E6010079D10100B7E60100B9E601009B
:10B0900011D20100BBE6010039DC0100BDE6010070
:10B0A000BFE60100C1E60100000000000000000052
:10B0B0000000000000000000000000000000000090
:10B0C000F0B5A5B004000D002A9E00BF73A003C810
:10B0D0006F4603C7089506A83B21465400201190EF
:10B0E00004940392029313E0039C3500049F21789B
:10B0F0000898B8470890002800D1B5E01198401C86
:10B100001190641C6D1EF2D104970398801903906E
:10B1100003980078252809D100260B960C960D96E9
:10B120000E960F9610960021039C0FE00021C94354
:10B130006A46039801F015F8060001D1119895E0D0
:10B14000D2D50126E1E7012008430100641C2078E4
:10B150002028F8D023280CD02B2804D02D2804D068
:10B1600030280AD084E00220EEE70A0004211143CF
:10B17000ECE7080008210143E8E708001021FAE79E
:10B1800013960AE0139A444B9A4205DA93009A18F0
:10B190005200101830381390641C20780200303AA6
:10B1A0000A2AEFD320782E2803D00020C043129023
:10B1B00027E0641C22782A2A0AD102980068029AA1
:10B1C00010600268001D029B18601292641C18E057
:10B1D0002D2A01D1641C00E0002212960CE0002A06
:10B1E00009D1129B2C4DAB4205DA9D00EB185B0098
:10B1F000181830381290641C20780300303B0A2B5A
:10B20000EDD306AD2987277826A0390000F0BAFFD4
:10B21000002801D0641C00E000273A202F54285C4D
:10B22000682804D12178682901D1622005E06C28C2
:10B2300006D120786C2803D171203A216854641C0F
:10B2400016A80A902378029A06A9049800F068F8D4
:10B25000611C0391002807D116AA06A9049800F0E2
:10B26000F9F9002800D453E70020C04325B0F0BD11
:10B270002A2885D10298026802601068121D029B7C
:10B280001A601390002804D5424213920A00042148
:10B290001143641C86E70000CBCCCC0C00000000FE
:10B2A00000000000686A6C747A4C00000B00622891
:10B2B0001CD068280DD06A2803D06C2823D07128B0
:10B2C00021D11A68D21D072082431A6003CA1A606E
:10B2D0007047002A19681960086803D0091D1960B1
:10B2E00000B217E0091D196080B217E0002A196842
:10B2F0001960086803D0091D196040B20AE0091DF1
:10B300001960C0B20AE0002A19681960086803D001
:10B31000091D1960C1177047091D19600021704788
:10B320007CB50C0011001E0025693200253A00D1C1
:10B330004AE11C3A00D182E0121F022A00D87EE0C6
:10B340000E3A00D104E1521F58D0093A77D0921E2C
:10B3500016D0521E34D0521E022A70D9121F2FD07E
:10B36000521F00D194E0521E48D0521E00D1DEE0A0
:10B37000D21E00D1FAE0921E40D0D21E3ED029E16A
:10B380003A22A25C6C2A09D06069421C62610A6898
:10B390000A601368121D0A602B5425E10A680A60CE
:10B3A0001368121D0A60009300210191C9432163B3
:10B3B0006A46210000F0D0F9002800D414E100E131
:10B3C00001223A20205CFFF771FF03C4083C0029EA
:10B3D00004DA6069411C61612D210DE0208F810735
:10B3E00004D56069411C61612B2105E0C00721D5AE
:10B3F0006069411C6161202129541BE000223A2030
:10B40000205CFFF753FF03C4083C3820205C000792
:10B4100010D503CC083C002901D100280AD02020F7
:10B420003043782806D1606930212954401C411CE2
:10B4300061612E5460692818E060310084E008687A
:10B44000C01D0722904308600CC808600CC4083C6B
:10B4500003CC083CC80F04D06069411C61612D21F8
:10B460000DE0208F810704D56069411C61612B21AB
:10B4700005E0C00704D56069411C616120212954A1
:10B4800060692818E0603100200000F081FAABE02C
:10B490003B20205C002803D00024E44353A074E048
:10B4A0003A20205C622808D0682823D06A2812D06D
:10B4B0006C282ED071280ED02BE00A680A60106824
:10B4C000121D0A60002803D10024E4434DA05CE073
:10B4D000E16A017088E0086808600268001D086081
:10B4E000002A03D10024E44346A04EE0E06AC117DD
:10B4F00003C279E00A680A601068121D0A60002819
:10B5000004D10024E44300BF3EA03EE0E16A018094
:10B510006AE00A680A601068121D0A60002803D1F8
:10B520000024E44337A030E0E16A01605CE0086891
:10B5300008600268001D08600020C0430021104020
:10B5400003C4083CE5607821200000F069F94BE075
:10B550006C223A23E2540B680B601A681B1D0B60C7
:10B56000002A29D10024E4432CA00EE03A22A25C58
:10B570006C2AF0D0086808600568001D0860E56066
:10B58000002D06D10024E4432BA000F007FE201A72
:10B5900076BD266B002E03D5280000F023FE09E0BF
:10B5A00032000021280000F025FE002801D0401BB9
:10B5B00000E03000A06117E0210000F0CDF8002885
:10B5C00012D50020C04376BD6069411C6161252110
:10B5D000295409E06169481C606125226A543100E0
:10B5E00002D0411C61612E54002076BD7072696EDC
:10B5F00074665F733A20256E20646973616C6C6FAA
:10B60000776564007072696E74663A2062616420C6
:10B61000256E20617267756D656E74007072696E5B
:10B6200074665F733A2062616420256C73206172D6
:10B6300067756D656E7400007072696E74665F7315
:10B640003A2062616420257320617267756D656EB2
:10B6500074000000F8B506000C001700606B61690B
:10B66000401A216A401AA169401A616A401AE169C8
:10B67000401AA16A401A00903820205C40070ED47E
:10B68000009800280BDD05462021A068B047A06087
:10B6900000285DD0E06A401CE0626D1EF4D13A00E3
:10B6A00063692100300000F0EDFC002850D1256ACC
:10B6B000002D0ADD3021A068B047A060002847D0E7
:10B6C000E06A401CE0626D1EF4D1A369E2682100CB
:10B6D000300000F0D7FC00283AD1656A002D0ADD61
:10B6E0003021A068B047A060002831D0E06A401C3B
:10B6F000E0626D1EF4D1E369E068A169421821009F
:10B70000300000F0BFFC002822D1A56A002D0ADD20
:10B710003021A068B047A060002819D0E06A401C22
:10B72000E0626D1EF4D13820205C40070ED50098F1
:10B7300000280BDD05462021A068B047A060002846
:10B7400006D0E06A401CE0626D1EF4D10020F2BD1C
:10B750000020C043F2BD0000F8B5A6B004000D0003
:10B7600016002F6B002F00D5864F00F04FFD696B40
:10B770000A1800BF28A003C803AB03C3812A47D21D
:10B780000020059400950290002F30DD03AA316857
:10B7900001A800F0EBFC05003AD43068002801D184
:10B7A0006D1E35D4AF4222DB0098406940198128D4
:10B7B0000CD300240098446306AA00990598FFF76B
:10B7C00049FF0290002812D400984461009844690F
:10B7D00006A82A0001A9001900F01EFD60190099B1
:10B7E00048613068002802D0361D7F1BCCE7059BDE
:10B7F000009C0298002804D106AA21001800FFF737
:10B8000029FF002802D100216161616327B0F0BDEA
:10B810000020C043FAE70000000000000000000024
:10B82000F2B586B0040025690A466F2A01D10827BF
:10B8300007E0084620210143782901D00A2700E0CB
:10B8400010273C2603CC083C04AB03C3642A01D078
:10B85000692A09D1002907DA04A803C800220023B5
:10B86000121A8B4104A80CC004A803C8002920D1D7
:10B8700000281ED1206B00281BD1082F4ED1382064
:10B88000205C00074AD53B26302046E000290ED533
:10B890003821615C14220A40102A08D1616B626968
:10B8A000891A226A891A081A002800DD206207B066
:10B8B000F0BD0294009504A830C8761E01962000C1
:10B8C00029003A00FB1700F0D5FC3032D0B23A28FC
:10B8D00003DB6846007E513812180098825520001C
:10B8E00029003A00FB1700F0C5FC04000D0001D14F
:10B8F000002C05D00298C068009989198842DCD3D1
:10B90000029C009D082F09D13820205C000705D536
:10B91000A85D302802D0761E3020A8553C20801B20
:10B92000A061A919E160216B8842AFDA081A206290
:10B93000208F154901402187B9E7F8B50026134F3C
:10B9400004000D00009216E001200099084007D085
:10B9500032003B002000290000F0C1FC04000D0073
:10B960000098401000903000390032003B0000F099
:10B97000B6FC06000F0000980028E5D12000290041
:10B98000F4BD0000FFFFFF7FEFFF00000000244038
:10B99000F3B593B005AA03C802AB03C314A800789B
:10B9A00020210143019161290BD01398006B0028DD
:10B9B00001D5062003E004D1672902D101201399A3
:10B9C0000863139803C84C006415641C13D10B035F
:10B9D00011D003201399886114A8007861381A28BF
:10B9E00004D255497944FF31513116E05349794425
:10B9F000FF314B3111E04C006415641C13D10B0373
:10BA000011D103201399886114A8007861381A288D
:10BA10001BD34B497944FF31293103221398C06865
:10BA200000F0FAFBC9E110AB03C391A6C0CE10A889
:10BA300003C8394080256D03A9420BD2002300932F
:10BA400010AB30CB604069400EE03E497944FF3195
:10BA50000B39E2E7080D884C2418009410A803C89D
:10BA6000874D0D4085492943139B03C301986128E5
:10BA700013D11398C06830210170811C139BD960C9
:10BA800014A90978612901D1782100E05821417079
:10BA900013984069801C13994861139830C8264058
:10BAA0002F4005D1002E03D100206B4698807BE10A
:10BAB0000198612800D0A9E01398006B002801D5F7
:10BAC000212000E0401C0190019F7F1C02A803C8B8
:10BAD0000022002300F0C5FC02D280200006454071
:10BAE0000098001F009069460A7505A8461C002FA3
:10BAF00000DC68E120002900002280235B0300F0C5
:10BB0000C9FC00D95FE169004A0D11001C31002A0F
:10BB10001AD0002918DDB74A914206DB100529002A
:10BB2000802212061140014312E0554A2A400805BE
:10BB3000104305000EE000BF482B0000482B00001A
:10BB40004C2B0000442B00002900802212061140DB
:10BB500000240D002000290000F0B6FC0290FF1F19
:10BB6000002F09DD00F0EAFC02000B002000290094
:10BB700000F04BFD04000D00F01D0721029A04E0C7
:10BB8000401E0F23134003701211002A01DD491ECD
:10BB9000F6D5491E00D512E1401E00220270F8E7DA
:10BBA0000023040005AD2D1901E0401E6D1E641E2A
:10BBB0002E789E42F9D00F2B04D14B1C1B5D5B1CD1
:10BBC000491C0B55002C04D505AA401C0099091DE1
:10BBD0000091431E11D4D41814A909782578303562
:10BBE000EEB2392E02DD0E003A3EAD1925705B1E15
:10BBF000641E002BF2D514AB19701399096B002940
:10BC000000D4CEE0411E139B1963CAE002A803C80A
:10BC10000022002300F025FC06D202A803C88022DF
:10BC20001206514002AA03C200987349484373495F
:10BC300000F078FD009007200099401A049005DD7F
:10BC4000024602A803C8FFF778FE0AE0424200203D
:10BC50006B49FFF772FE02000B0002A803C800F058
:10BC6000BBFD019A662A0DD1009A0A320BE000BF93
:10BC7000FFFFFFFFFFFFFF7F02FCFFFF0000E03F31
:10BC8000FFFF0F800622139B1B6B9A18142A00DDFE
:10BC9000142230236C46237505AB5C1C02E002A81D
:10BCA00003C8049A002A3CDD02AB03C3049202A835
:10BCB00003C800F01BFC0F90064608340425300032
:10BCC0000A2100F032FD0F0030000A2100F0E6FDED
:10BCD00006003037601E077030000A2100F025FD95
:10BCE0000F0030000A2100F0D9FD0600A41E3037F5
:10BCF00027706D1EE3D1083404980838049000289A
:10BD0000CDDD0F9800F00AFC02000B0002A803C86A
:10BD100000F07BFC00223B4B00F0E1FA02AA03C2D8
:10BD2000C5E705A8401C211A05A8421C009802E09E
:10BD3000491E401E521C1378302BF9D000900198F8
:10BD4000662802D10098401C05E00198652801D1C1
:10BD5000012000E00020139B1B6B1818814200DAC1
:10BD6000481E00281DD4884204DA115C352901DB05
:10BD7000392300E030230400511E0D1901E0401E5C
:10BD80006D1E641E2E789E42F9D0392B02D1135DB0
:10BD90005B1C1355002C04D50A00401C0099491C5B
:10BDA000009169468880009800B20090019B1BB208
:10BDB00014A80178139800F027F815B0F0BDC61D3F
:10BDC000002F00DD96E605A9481C331A05A8421C81
:10BDD0000198834200DC1800002800D50DE7984246
:10BDE00000DBDDE64B1C1B5C072B00DCD8E60F23D9
:10BDF000D7E60000FF07000097750000A08601004D
:10BE00000000F03F84D79741F6B583B006000F00DD
:10BE10001C0000F0B0F96946406A00780870356B84
:10BE2000002C03DC012400BFA3A004902020384391
:10BE3000662803D10A9F3FB27F1C1AE0672800D012
:10BE400085E00A9800B20321C943884200DA82E003
:10BE5000A84200DB7FE00A9F3FB27F1C3820305CA5
:10BE6000000702D4AC4200DA250038B22D1A00D502
:10BE70000025B169F06840183AB2002A26DC491C56
:10BE800030220270002D03DC3820305C000704D51E
:10BE900068460078F2685054491CB16138B241429A
:10BEA0008D4200DA6F423FB278427062ED19A542CE
:10BEB00000DA2C0024B2F46122000499F068B3691E
:10BEC000C01800F0A9F9281BB062C3E0944218DA48
:10BED0002200049900F0A0F9B0690019B0613FB2E6
:10BEE000391B7162002D03DC3821715C090706D50E
:10BEF00069460978F2681154F069401CF061B56236
:10BF0000A8E0049900F088F938B2B1690918E41B77
:10BF1000002D03DC3822B25C120704D56A46127881
:10BF2000F3685A54491CB16121B28D4200DA2C00E9
:10BF300022B204990918F068B369C01800F06CF9CE
:10BF400024B2B0690019B061281B706282E0612FD1
:10BF500011D1702712E0AC4204DA3821715C090774
:10BF600000D425006D1E00D50025672F01D165275F
:10BF700004E0452702E0412F00D15027B069411C61
:10BF8000B161049A1278F3681A540498401C049022
:10BF9000002D03DC3820305C000718D5481CB06148
:10BFA0006A461278F3685A54002D10DD641E21B2DF
:10BFB0008D4200DA2C0022B20499F368181800F0C0
:10BFC0002BF924B2B0690019B061281B7062F068C7
:10BFD000B169401807700A9909B2002904D42B21CD
:10BFE0004170801C049006E02D224270801C049059
:10BFF00048426946088500246D460A9800B205E06B
:10C000000A2100F08FFB2970641C6D1C00B200280F
:10C01000F6DC012C09DC20203843652805D13020CE
:10C02000049908700498401C0490002C28D13020FA
:10C03000049908700498401C07E0641E6946095D75
:10C0400030310170401C002CF7DCF168B2698918AE
:10C05000401AF0613820305C1421014010290DD1C4
:10C060007069B1694018716A4018F1694018B16A85
:10C070004018716B884201DA081A306205B0F0BDD1
:10C080000498E0E7F8B507000020002B12D00E005E
:10C0900014001D002178B068B847B060002807D0B0
:10C0A000F06A401CF0620020641C6D1E02D0F1E7B3
:10C0B0000020C043F2BD00003000FEE7613807E019
:10C0C00005E0010061391A2901D201207047413889
:10C0D0001A288041C00F7047010021390F290AD367
:10C0E00001003A39062906D901005B39062902D335
:10C0F0007B380428EDE7012070472048704730B4B2
:10C100005368D418042B0BDA002909D00578257060
:10C110000578002D04D05B1C491E641C401CF1E70F
:10C12000536030BC704738B500290ED01D00140094
:10C13000FFF7E5FF616820006A6B90470122D24358
:10C14000811A02D0491E02D004E0012000E0002044
:10C15000C04332BD0021616032BD80B5DA6B9047CB
:10C1600002BD80B5054BFFF7DEFF02BD80B5034B76
:10C17000FFF7F3FF02BD02487047000028190020B6
:10C18000F018002000BFC9B200E0401C02788A42CB
:10C1900002D0002AF9D100207047FEE780B50028C0
:10C1A00001D100BF07A006490B68002B03D0222253
:10C1B0000021984701E000F08CFB222002BD000026
:10C1C000C4200020636F6E73747261696E7420689E
:10C1D000616E646C65723A20626164206D65737390
:10C1E00061676500010000E0491C0A78002AFBD164
:10C1F000081A7047C9B201E0401C521E002A03D041
:10C2000003788B42F8D170470020704780B5FFF764
:10C2100074FF006C02BDFEE7124207D08B0706D008
:10C220000B78491C0370401C521EF7D870478307D7
:10C2300006D00B78491C0370401C521EF9D1704780
:10C2400070B4103A03D378C9103A78C0FBD25307C0
:10C2500001D318C918C001D508C908C0D20704D332
:10C260000B880380891C801C002A01D50B78037081
:10C2700070BC7047124224D0994228D970B500256D
:10C280001B4202D00C00002109E0002401264918BD
:10C290006441944200D3A41A7641F8D331000126B8
:10C2A00001E0764109D2001864416D41A41A9D4114
:10C2B000F7D2A4185D41B619F5D3300022002B0047
:10C2C00070BD1B42D8D108B5C046C04608BD01D1DB
:10C2D0009042D3D202000B00002100207047F0B53D
:10C2E0000E005E400125ED072E40B446AE0ADF1871
:10C2F0004C18F44208D2F7420ED2640D01D07F0DE3
:10C3000012D100206146F0BD05D1F74201D87F0D62
:10C3100005D10020C143F0BDFBD1640DF9D0002050
:10C32000C143490549088FE0E419C902DB022943EA
:10C330002B43DB0A460DC00231438E4630B487B230
:10C3400095B27D432E0CADB2140C7C43A419260C7F
:10C35000240425439CB27C43A419190C7943270C6F
:10C36000C919A4B20F043C43090C000C97B247430F
:10C370002E0CBE193543ADB2170C4743360CBF190E
:10C38000A6B2BF193E043543240C3E0C36199FB2A9
:10C390004743BF19BCB23E0C89191F0C47437F1895
:10C3A0003E043443390C704680B297B247432E0C9A
:10C3B000BE193543ADB2170C4743360CBF19A6B2B0
:10C3C000BF193E043543240C3E0C36199FB2474337
:10C3D000BF19BCB23E0C89191F0C47437F183E049D
:10C3E0003443390C77463F0C90B278432E0C8019B9
:10C3F0000604ADB22E43050CA0B22D18120C7A43E0
:10C400005019020C80B2240CA4189AB27A43121963
:10C4100014042043120C89181B0C7B43C91830BC30
:10C42000EF0A394203D1B61940414941641E6F12E7
:10C43000BF0DE41B0BDBFF19BC4211DA24050027FA
:10C440004208AE417841614166463143F0BD641C0B
:10C4500005D1401C6141CF0201D34908F4E750E700
:10C460005DE730B4012464054D00EC420BD85D005B
:10C47000EC4208D80C001C4364000443144304D26B
:10C48000994200D1904230BC7047FCD08B42FAD127
:10C490008242F8E730B4012464054D00EC420BD829
:10C4A0005D00EC4208D80C001C43640004431443B4
:10C4B00004D28B4200D1824230BC7047FCD09942FA
:10C4C000FAD19042F8E7FEE7F4464A1805D200F0A8
:10C4D0000FF801D580174008604700F009F80121E6
:10C4E000C907884200D90800404260474A1812D262
:10C4F000400DC90208430121C9070843520D4021DC
:10C500000901521A521C06D452421F3201D4D040A3
:10C510007047C017704700207047FEE701004222B5
:10C520001201D21E004207D002D4521E0018FCD5C0
:10C53000C10A400512058918704700000100EED5B8
:10C540004042F446FFF7EBFF0122D2071143604758
:10C550008B4200D1824205D98446100062468C4647
:10C5600019006346DF184C18640D7F0D3AD0661C25
:10C57000760537D0E61B352E34DCDB022B43DB0A95
:10C580000C0DC9022943C912202E0DDB1700203ED5
:10C5900006D01F00F741F3405F400026012A774193
:10C5A000C01871410DD217E01700F741F240574013
:10C5B000F3415A40B340F3405A4000268018594195
:10C5C0000AD3A21C52050FD0C207012F72411700D7
:10C5D0004008CB0718434908641C24054208AF41B2
:10C5E00070416141F0BC7047641C21050020F9E7EF
:10C5F0006B4010E06B40ABE7F742F3D1E943F1E762
:10C600002442EFD100200021ECE7F0B40125ED0732
:10C610000F005F40EED40C00871A9C4105D2C01B6E
:10C62000A141D219634169406B40AE0ADF184C1832
:10C63000F442E1D2640D7F0DE2D0E61B362ED1DC50
:10C64000DB022B43DB0AA4460C0DC9022943C90AAD
:10C65000012E28DC04D1D6075208DF073A435B08D5
:10C66000EF0A76429041994114D039423BD1B61934
:10C6700040414941761C394204D1761C0018494199
:10C680003942FAD0B9436746B74208D9A41B2405FA
:10C690002143A7E70042EAD13642E8D1A2E7E40A03
:10C6A000E10700209EE7202E0BDD203E1F00F34017
:10C6B000F7415F40012A002257417E429841914153
:10C6C0000BE01700F741F2405740F3415A40B340A6
:10C6D000F3405A407E42904199410A0303D2641EBE
:10C6E000B619404149410027641E24054208AE4165
:10C6F00078416141F0BC7047F446002804D44942B7
:10C7000000F013F8404260474042002905D45FD052
:10C7100000F00BF8404249426047494200F005F8FA
:10C720004942604703460B43E6D40022030A8B428A
:10C730000BD203098B4219D243088B422ED2411AE5
:10C7400000D20146524110467047FF2209023FD0F5
:10C7500012068B4205D3121209028B4201D3121228
:10C76000090203098B4219D300E0090AC3098B426D
:10C7700001D3CB01C01A524183098B4201D38B01F3
:10C78000C01A524143098B4201D34B01C01A524196
:10C7900003098B4201D30B01C01A5241C3088B42DB
:10C7A00001D3CB00C01A524183088B4201D38B00C6
:10C7B000C01A524143088B4201D34B00C01A524168
:10C7C000884200D3401A5241CFD2014610467047EA
:10C7D00008B5C046C04608BDF0B40E005E40012555
:10C7E000ED072E40B446AE0ADF184C18F4423BD297
:10C7F000F74241D2640D43D07F0D38D0E41BC9020B
:10C80000DB0229432B43CF0ADB0A0600B61A9F41FD
:10C8100004D2641EB6197F41B6185F416812800DBC
:10C8200024180018844222DAE80C0021B6197F414E
:10C83000B61A9F4102D2B6185F413F1C40414941A0
:10C84000F4D3241C21DD2405B6197F41B61A9F417B
:10C8500005D33743C60737430026012F7041614196
:10C8600066463143F0BC7047FCD1F74205D2002048
:10C87000C14349054908F3E704D00020C143F1E76B
:10C880007F0DFAD000206146ECE72442FAD1401C2B
:10C8900061410F03F6D30020E2E7FEE7094214D01E
:10C8A00088420FD30122030C01D10004120400239B
:10C8B00000185B418B4200D35B1A5241F8D3190038
:10C8C0001000704701000020704708B5C046C04600
:10C8D00008BD80B5012000F001F801BD2021090349
:10C8E00026311820ABBEF9E70870000A4870022014
:10C8F00070477CB504000D0028880930824201D2BF
:10C900000C2076BD684671DF00281FD108202988D9
:10C9100060542888401C28801B2180B2215428881C
:10C92000401C28806E460622711C80B22018FFF73A
:10C9300073FC2888801D28803178002900D00121CF
:10C9400080B221542888401C2880002076BD7CB508
:10C9500004002578012D04D16078002801D107203A
:10C9600076BD01921688B01C834221D3012D04D1DB
:10C9700060783018801C83421AD30A00981B831EEB
:10C980009BB269460B80019800881018801C7DDFDF
:10C99000002831D12178082002290DD16946098863
:10C9A0008B4207DA69460B8069460988FF290BD359
:10C9B0000C2076BD0920F7E70129F3D161788B427D
:10C9C000F0DB6B461980EFE769460988491C019B3B
:10C9D0001B88D15401990988491C019B198089B28F
:10C9E000505401980088401C0199088069460988C4
:10C9F000401801990880002076BDF8B584B00A9CE3
:10CA00000B9F0025268802960026039068468170B9
:10CA10004270878522E0022021886A46928D9446E2
:10CA20006A4612788A181018844540DB002D09D117
:10CA3000491C21806846807889B258542088401C5F
:10CA40002080012520881A18694601A865DF002882
:10CA500022D12088097840182080761C039800880D
:10CA600086421BDA01A803994968B20089180A882E
:10CA700002804A8842800022694665DF00280BD187
:10CA80006846007849788842E7D1002DC3D000205D
:10CA9000C2E702995854002005B0F0BD002DFAD02D
:10CAA00020880299401A401E81B2FF29F1DD0C2036
:10CAB000F2E7F1B582B014001F00089E099D0195B0
:10CAC00000960222FFF799FF002807D12100019567
:10CAD00000963B0010220298FFF78FFFFEBD7FB546
:10CAE0001288941DA34201D20C2012E0009000880D
:10CAF00006280DDB1E4C1F4DA84201DBA04207D1CA
:10CB0000009E7688062E03DBAE4204DBA64206D0EA
:10CB1000072004B070BDA04201D08642F8D30C00BB
:10CB20000520A05402980088401C02990880122118
:10CB300080B2215402980088401C0299088080B27B
:10CB4000211800980088FFF7CFFE0299098808187D
:10CB50000299088080B2211800984088FFF7C4FE2F
:10CB6000029909880818029908800020D1E700007E
:10CB7000FFFF0000810C000070B504001500A088C4
:10CB8000801C2A881618B61CB34201D3FF2801D393
:10CB90000C2070BD0E00401CB0542888401C28801A
:10CBA000FF2180B231542888401C288080B231187F
:10CBB0002088FFF799FE298808182880A288002A73
:10CBC0000CD0A168002901D1072070BD80B23018B7
:10CBD000FFF722FB2888A18840182880002070BD1C
:10CBE000F8B5836A002B39D0002400900F0016009E
:10CBF00022E0401C318878543088401C3080162157
:10CC000080B239543088401C308080B2391828886E
:10CC1000FFF76AFE318808183080AA88002A0AD0F7
:10CC2000A96800291AD080B23818FFF7F5FA3088C1
:10CC3000A98840183080641C00992C22895CE0B2DD
:10CC400088420DD20098806AE1B20C225143451807
:10CC5000A888801CFF28CCD30C20F2BD0720F2BD91
:10CC60000020F2BDFEB506000D00140000200021DA
:10CC7000278820802D20305C002806D03A00210033
:10CC80002800FFF736FE01004AD1B07800281ED0F8
:10CC90002188091D8F4242D3684679DF002800D0E1
:10CCA000A4E00320218868542088401C208019219A
:10CCB00080B229542088401C208080B22918684600
:10CCC0000088FFF711FE2188081820800021F278E3
:10CCD0000220002A18D052B269460A702188CB1C63
:10CCE0009F421CD368542188491C2180012289B2AB
:10CCF0006A542188491C21806A46127889B26A5494
:10CD00002188491C218000217268002A1BD0002143
:10CD1000515622886B461A80D31C9F4201D20C21A7
:10CD200065E06A461288A8542088401C20800A22A8
:10CD300080B22A542088401C208080B22954208848
:10CD4000401C20800021308900280AD001970094DF
:10CD50002B000622022130000830FFF7AAFE010056
:10CD600045D1308A00280AD0019700942B00072271
:10CD7000032130001030FFF79CFE010037D1308BCB
:10CD800000280AD0019700942B00152214213000AE
:10CD90001830FFF78EFE010029D1306A002806D036
:10CDA0003B0022002900FFF79AFE01001FD1706AA4
:10CDB000002806D03B0022002900FFF7DDFE01001D
:10CDC00015D12C20305C002807D03B002200290020
:10CDD0003000FFF705FF010009D13078002806D0A8
:10CDE0003B00220029003000FFF7B1FD01000800E0
:10CDF000FEBD78B591B00C001F216A4651801180AC
:10CE0000002500280AD0C17849070FD5921C09A92E
:10CE1000FFF728FF00281DD109AE02E00026694671
:10CE20004D8020000CD0C178002901D0072011E0EE
:10CE30006A4601A9FFF716FF00280BD101AA02E0FC
:10CE400000226846058068460388DBB24188C9B283
:10CE5000300072DF12B070BD00280FD0934909680E
:10CE6000934A00BF00BF00BF00BF00BF00BF00BFAC
:10CE700000BF914200D000BF0138F2D1704738B5F1
:10CE8000802080028B4908608B4880214902016420
:10CE900001608A4C012525602F20FFF7DDFF6560CA
:10CEA000B24C002525612F20FFF7D6FFA57231BDBA
:10CEB000F8B5AE480378C1680091002117E03E0044
:10CEC000FF69002F13D0A742F9D1BE4207D1EC6908
:10CED000C460002C03D1A64C22600161C2723C6880
:10CEE000FA69F261002A02D015682C191460C5682D
:10CEF00001224678DCB2B44218D04468DEB218276A
:10CF00007E43A4195B1C8778DEB2BE4200D10023A9
:10CF10002678022E02D0032E0FD0E8E764682E0098
:10CF20003700CEE71174D269C26006E000988542EE
:10CF300001D00120F2BD0020F2BDC268002AD6D087
:10CF4000F0E7F1B582B0894AD0680190002300E093
:10CF5000D460D0680125029900292FD11178547826
:10CF6000A14254D054680E0018277E43A619491CCC
:10CF70009778CCB2BC4200D100211170746831782E
:10CF80000129EBD1217C0029E8D1B1686160F16809
:10CF9000A1603169E1607169A161D17A002900D095
:10CFA0006360616800917349009E1769F61B0E402B
:10CFB0004F08BE4206D2A16871180BE00C46E16929
:10CFC0000291EEE71669009FF61B3140A668B14258
:10CFD00002D2711A216000E023606360A3602574AF
:10CFE000E3610028B4D001682568A94203D3491B36
:10CFF0000160E061ACE701000E68AE420CD2AD1BEF
:10D000000800C969002909D0F6E70020FEBD019992
:10D010008842FAD00120FEBD761B0E602560E161DA
:10D02000C46196E7FEB55148C16800293BD00C6841
:10D03000744D29680091016902914E4E0099029A3F
:10D04000891A3140C91C01918027BF02807A0028CB
:10D0500010D16D487908016401606C4807606E4822
:10D06000076001206D4908602F20FFF7F5FE0120C1
:10D070003E4988720198844200D204000298001947
:10D080003040E8632968009A801A3040891A0E40BF
:10D09000F61CB04209D22868E8632F20FFF7DCFEB7
:10D0A0005F480760F7BDFFF7EAFEF7BDEC18002008
:10D0B0000024F40080E100E0081301400410014066
:10D0C000FEB500200090294A11690291D0680190B4
:10D0D000107A527A90420FD0401CC2B2022A00D17C
:10D0E0000020224A03069B0DD3185F69C919090263
:10D0F000090A1161012401E0002400271B4D287258
:10D10000FFF7D6FE0600E868002C1ED03900002686
:10D11000009C029D0FE0C91AF618002313600090CE
:10D12000D069D368002B06D0AF193F023F0A576081
:10D130009360D461009C002816D0020013689942C5
:10D14000E9D20094591A11600126084CE060009859
:10D15000FFF7F7FE002801D1002E02D00198FFF75B
:10D1600061FF0020E072F7BD0094EDE75820002039
:10D1700008100140FFFFFF00F8B52B4900200864AC
:10D1800048648864C86408604860264FFD68002DC4
:10D1900036D000241B4800683969401A0602360A56
:10D1A0002868864218D3361A24182800ED69017CB5
:10D1B00000290FD00021017442698169FB69002BAD
:10D1C00006D010009847002804D000F02FF801E0A6
:10D1D00008009047002DE3D1787A397A814206D150
:10D1E000401C7872C0B2022801D100207872380049
:10D1F0001430797A8900445080204003084908603F
:10D20000F1BD0000041501400413014080E200E07C
:10D2100080B5FFF755FF01BD00E100E000100140BF
:10D2200000E200E058200020001101401FB504007A
:10D2300068460C2100F032F802946A460021024848
:10D2400000F02EF81FBD0000014000001206130A76
:10D250001A43130C1A4300BF094205D0830705D0B7
:10D260000270401C491EF9D170470000130030B411
:10D2700014001500103902D310393CC0FCD2490704
:10D2800000D30CC000D504C0890002D30280801CEA
:10D29000002900D5027030BC704700000022E5E78D
:10D2A00080B50A49012000F081F800F02AF800F06A
:10D2B000D3F80028FBD100BEBFF34F8F04480549C7
:10D2C0000860BFF34F8F00BFFDE700BF68E60100B5
:10D2D0000400FA050CED00E070B5060001D107204E
:10D2E00070BD002000F078F9040008D100F0B4FA15
:10D2F000050000F0AFFA3200290000F007F8200026
:10D3000070BD80B5012000F067F902BD10B54F4B2C
:10D31000FF249C6000241C605C604D4C1A5100F09E
:10D3200001F810BD4B4A106051607047F3B581B0F1
:10D33000871C012400256846057000F09FFA434EC3
:10D34000306802990860B1683268481C801A7368B6
:10D35000C318B81C83421AD2022B16D330000C30EB
:10D36000114089000EA292022923134343503468CE
:10D37000641C3460601C3060354830588047310090
:10D380000C31B268224092008850002401E0D0198C
:10D3900030606846007800F088FA2000FEBD00008A
:10D3A0004F766572666C6F770D0A0000F8B506005F
:10D3B0000C00264DAF6869460020FFF7B7FF002834
:10D3C00017D028000C300099394089007207920E5E
:10D3D000A302134301221A4342500098401C411CEF
:10D3E00000912E000C360740BC0019482858804791
:10D3F0003051F1BDF7B506000C00144DAF68694619
:10D400000120FFF793FF00281ED028000C30009960
:10D41000394089007207920EA302134341221A4336
:10D4200042500098401C411C00912C000C343840A4
:10D430008600074828588047A05128000C300099E2
:10D440000F40B900029A4250F7BD00007019002049
:10D450000C040000801D0020F0B58DB05A494868CA
:10D460000968884200D1A9E0574B9C6819000C312B
:10D470002200024092008E58471C03210AE09005CA
:10D48000800D281838181A000C3225000540AD0010
:10D490005659471CB209B50D0E42F0D005940C90B8
:10D4A0004A48059B3B409B00C01806907F1C7007B4
:10D4B000C00F01D0002006906846B3065B0F0374CE
:10D4C000414C8220C000201801903140022950D1E7
:10D4D00020000C3005993940890040580A907F1C83
:10D4E0000B979005800D09900B99059808400599B8
:10D4F000491C091A890022000C3280001018019A78
:10D5000052680892A94213D2002905D120000C309C
:10D5100007902800002204E00790080022000C3247
:10D52000691AC9B203910292C0B20190079803E050
:10D5300000210391029101950090099B0A9A069996
:10D540006846007C089FB847A84204D10B98ED1CA0
:10D55000A90845182DE021000C310C9A059B1340B9
:10D560009A001B4B334080011A4D05401D438D50DE
:10D5700020E007ABB00A02901007000F00263D0024
:10D58000059909E022000C320F002F40BF00D2594C
:10D590001A606D1C1B1D761C8642F3D3009007ABEE
:10D5A000029A06996846007C019E3668B0470028BA
:10D5B00000D0656060682168884201D1002000E0E9
:10D5C00001200DB0F0BD0000701900207C19002072
:10D5D0003F00FFFFC0FF000038B505009F4C2078DA
:10D5E000002802D061788D4204D000F039FA012081
:10D5F00020706570002032BDF8B500250A260700AE
:10D600000C0022007919002000F0FBF92D18241AD3
:10D61000002801D1761E01D0002CF2D10120F2BDEC
:10D62000002901D5002070470268511801600120CF
:10D630007047000038B503000D0014000120002BD6
:10D640000AD01B6888A20102280000F015FA010028
:10D650002000FFF7E5FF32BD0021216032BD000050
:10D66000F8B5C6B0080016001D000024059405AAF0
:10D6700006A9FFF7DFFF002846D04C9928003500A7
:10D6800006AA059BD7188026760006292ED801A267
:10D69000525C97440622423E3A3632002800FEF79A
:10D6A000A1FD040005982018B0421FD222002900D5
:10D6B0003800FEF7B1FD19E003682A000598311A19
:10D6C000380000F0D9F910E0416904910169039133
:10D6D000C1680291816801914168009103682A0044
:10D6E0000598311A380000F0C7F90400210005A898
:10D6F000FFF796FF002807D00598B04204D80146EE
:10D7000006A8FFF779FF00E0002047B0F0BDF8B5AC
:10D71000C6B0080014004F990022019202934D9A5E
:10D7200051180591002801D00A2100E00021039141
:10D73000002B16D101AA06A9FFF77CFF002873D0A1
:10D740002000FEF74FFD0500C22D00D9C2252A009A
:10D75000210006A8019BC018FEF75EFD0198401944
:10D76000019006A801994518039A89184418313484
:10D770001046002806D0202201462800FFF766FD4B
:10D7800003982D181020049020200299059A9142A8
:10D7900006D328706870A870ED1C2070641C27E008
:10D7A0004D9A9142694602D24C9A029B03E04E9AEE
:10D7B000029B4D9E9B1BD25C0A7002216A46167822
:10D7C0000A00511E002A31D08A003300D3401A07C4
:10D7D000120F0A2A01DA303200E037326B1C4F4256
:10D7E000DA55EDE76846007838700298401C0290E0
:10D7F0000498401E0490C7D10D2020700A2060704C
:10D800002020287001980399433140180190014667
:10D8100006A8FFF7F1FE002805D00020019002982D
:10D82000059988429DD3029847B0F0BDA870ED1CC1
:10D8300027007C1C300020385F28D3D3300000F054
:10D8400041F90028CED1300000F045F90028C9D1B7
:10D850002E20C9E70248704702487047C8200020C0
:10D8600061D601000FD701005B253038645D0000F0
:10D87000EFF3108072B6704762B6704738B5040097
:10D88000FFF7F6FF0121134A5368002B07D15160BF
:10D890001149124B1D680D4015601960002121705F
:10D8A000002801D1FFF7E8FF31BD10B5094C6168D0
:10D8B00000290CD000280AD1FFF7DAFF2168084AB6
:10D8C000116000216160002801D1FFF7D5FF10BD74
:10D8D00000000000BC200020FC06FFBC80E100E04E
:10D8E00000E100E010B55C4C02202061606100BFE7
:10D8F00011A0A06121007831E161802189002162BD
:10D900000021A1626162E162A0649E208000201873
:10D91000E06410202065A1656165E16504224FA1E6
:10D92000E01DFEF779FC072206A12000FEF788FC27
:10D930002020A07110BD00005465726D696E616C8D
:10D94000000000005345474745520000FEB5002443
:10D95000C76801900E001500019800690199896857
:10D96000C91B874201D2C01B00E00818401E884234
:10D9700000D30800A84200D92800009002463100D8
:10D9800001984068C019FEF747FC00982418361823
:10D990002D1A3F1801988068874200D1002701980E
:10D9A000C760002DD8D12000FEBDF8B504000F00DF
:10D9B0001500E668A068801B0090606880190099D7
:10D9C0008D4205D23900FEF727FC7019E060F1BDE9
:10D9D0000A463900FEF720FC00982D1A2A00391853
:10D9E0006068FEF719FCE560F1BD0169C2688A4212
:10D9F00004D38068401E801A40187047881A401E61
:10DA00007047B0B50F0014001349182250430D1889
:10DA100018356869002803D0022813D006D318E00F
:10DA20002800FFF7E2FFA04206D212E02800FFF72D
:10DA3000DCFFA04200D80400220039002800FFF7D4
:10DA4000B4FF07E0220039002800FFF77FFF040041
:10DA500000E000242000B0BD881D00205254540076
:10DA600004480078002800D0704780B5FFF73AFFDF
:10DA700001BD0000881D002008B410B585B007ABBB
:10DA8000049300240394002902D10194029402E03B
:10DA90000190491E0291009404AB01A90848784402
:10DAA0001E30FDF70DFB0199002900D00C700028F5
:10DAB00000D4039805B0019910BC02B0084700BF1C
:10DAC0006F0B000010B50400FEF717FB01002000EB
:10DAD0000969884710BD10B50400FEF70EFB010070
:10DAE0002000C969884710BD202804DA6549C14073
:10DAF000C807C00F70470120704738B50400FFF712
:10DB0000F3FF002801D1604832BDE0001821014038
:10DB100020000322002805D55C4B25072D0F083D6A
:10DB2000AD0801E05A4B8508AD005B59CB4099091F
:10DB30000A40032A0FD8002A0DD0022A0BD0E20691
:10DB4000D20E0121534B5C68002C06D191406648EF
:10DB50000160002032BD654832BD400980001818C0
:10DB6000036891401943F3E780B5FFF799FB01BDC6
:10DB70007CB55F4E3078002836D000250024F06850
:10DB800000281BD1012519E0002802D0FFF74EFB29
:10DB90001CE0009800F054F93169002916D0009873
:10DBA000884713E0002802D0FFF740FB02E0B0688E
:10DBB000F16888472C4217D1002C07D170780028D3
:10DBC00012D1684652DF0528DED10124002DF1D1A3
:10DBD0007078002808D1708869460880B06861DFD5
:10DBE0000528DFD10125E5E773BD4148007870477E
:10DBF00038B51400002916D08A0714D13C4A916028
:10DC000054805360384B1968CC07E40F0125002C71
:10DC100001D038490D60384910DF002805D0002CAC
:10DC200009D01D6032BD072032BD157000F00FF91C
:10DC30001620FFF762FF32BD80B52D4840680028EE
:10DC400005D08047002804D0FFF7F0FA01BDFFF7A8
:10DC50008FFF01BD70B504000D00160014213000C7
:10DC6000FFF71CFB0120308000213161317BFE2257
:10DC70000A40327335727472002C00D0B0720020EA
:10DC800070BD0000FC06FFBC012000001CED00E0A0
:10DC900000E400E0BC2000201CB518490191019966
:10DCA0000091694660DF040000980199884212D013
:10DCB000024600BF13A10220FFF79CFB10484168F9
:10DCC000006841438020800508180099421A00BF6F
:10DCD0001DA1022004E0002C04D0220027A1012075
:10DCE000FFF788FB200016BD00E100E002200000E5
:10DCF000A820002080E100E069DB0100701800200E
:10DD0000340000105344483A5741524E494E473A66
:10DD100073645F626C655F656E61626C653A205228
:10DD2000414D2073746172742073686F756C642048
:10DD300062652061646A757374656420746F203055
:10DD40007825780D0A0000005344483A5741524E56
:10DD5000494E473A52414D2073697A652073686F86
:10DD6000756C642062652061646A757374656420F3
:10DD7000746F2030782578200D0A00005344483A0B
:10DD80004552524F523A73645F626C655F656E61D3
:10DD9000626C653A206572726F7220307825780D5A
:10DDA0000A00000070B500200024344D29780029B5
:10DDB00001D0852413E0A86068602861E8603048DD
:10DDC0000068C00703D40321002000F061F8012699
:10DDD000FFF70BFF002801D12A4806602E702000B3
:10DDE00070BD38B50400254802D10500083507E0AC
:10DDF0000500103504E0086828602000496888475D
:10DE000029680029F7D131BDF8B501241B4F002541
:10DE10001E4E3068002806D035601B4804607C70B8
:10DE20000020FFF7DEFF7068002807D07560022031
:10DE300015490860BC700120FFF7D3FFF1BD000059
:10DE4000002800D0704780B5FFF7CBFF01BD1CB59F
:10DE50000020694608706846FFF710FD074C2078DF
:10DE6000002801D1FFF79EFFE068401CE060012020
:10DE7000A07068460078FFF718FD13BD94200020BD
:10DE800000E100E0180500400803004000010040E8
:10DE900018B5C20018231340FF249C40E2438907B1
:10DEA000090E9940030007D50C4B0407240F083CCA
:10DEB000A408A4001B1903E0094C83089B00E31885
:10DEC0001C682240114319600121C006C00E814028
:10DED000044801600448016011BD00001CED00E031
:10DEE00000E400E080E200E000E100E01A494018B0
:10DEF0000068012800D000207047A022D2058000D1
:10DF00001018E022D20080180268144B13400360FE
:10DF100002680904114301607047000038B56B4680
:10DF200008A425681D60411808E06B4684001B5951
:10DF3000A224E4001B591360121D401C8842F4D334
:10DF400031BD000000000050012243075B0F9A40E2
:10DF5000C008085C1040704700600040FFFFFCFFF5
:10DF6000F0B585B000246846046080256D00012668
:10DF7000042728B2FFF7BAFF002809D053480068E9
:10DF8000304005D0002029B2534A89180860344334
:10DF900076002D1D7F1EECD1260080273F06BE2077
:10DFA0004000FFF7A3FF002807D000204949086080
:10DFB0003E436A460121FFF7B1FF300715D0012427
:10DFC000002534420DD0A90041484218106813685A
:10DFD0003D4A5258110004D09903890FC004C00E65
:10DFE000904764006D1C042DEBD337406AD003A822
:10DFF000002101600020C04301E0009003980290DE
:10E0000000270026304CE01940214056C5B22900B7
:10E01000C022914301910021C943884244D002A902
:10E020000198FFF791FF00283ED02806800F04904A
:10E030000198201820214056800024582000049880
:10E0400002D1032830D101E003280AD10198C00889
:10E0500003A90B5C0122019D6D076D0FAA401A43B5
:10E060000A541E480199890040588003850F69466B
:10E070000198FFF769FF002802D0022D14D101E0BA
:10E08000032D11D10498032808D1022D01D10321B9
:10E0900000E002210198FFF730FF761C200003D03A
:10E0A0000499C9B20198A0477F1C042FAAD3360651
:10E0B00008D001AA01210020FFF730FF0198009944
:10E0C00088429AD105B0F0BD1020002004630040C2
:10E0D000106500407C610040006000400007005077
:10E0E0004058002804E0C1229200805801400800F6
:10E0F00000D00120C0B2704700228E235B00C250C6
:10E100008A688B8AD25C8B8A5B1C8B82194942504D
:10E11000704718B5A322D200821884235B00C01870
:10E120000023CC7D002C036001D1106811BD487E16
:10E130001268CB681A54487E401C487611BD1FB542
:10E1400003006846012404700172019219685A683C
:10E1500090471FBDF8B5020000206B461870197279
:10E16000916801919075116868465268904705B0B2
:10E1700000BD00001C050000F8B584B005000C00CF
:10E180008126B600002780218900FFF7ACFF002818
:10E1900026D0922149002800FFF7A2FF00281FD0B7
:10E1A0008E20400028188760C22080002E50A07E5C
:10E1B000002801D101206860684602210170902189
:10E1C000C90069180A680A600392E17D0172E0687B
:10E1D0000190E775277621686846626890472DE0D0
:10E1E00004212800FFF77FFF002827D08421490061
:10E1F0002800FFF775FF002820D021002800FFF736
:10E2000088FFE07D617E884218D1207E002807D0FB
:10E21000E268617EE0752069E060277667760AE053
:10E22000A07E002801D101206860C22080002E500D
:10E23000E775E268617E2000FFF781FF8E214900CB
:10E240002800FFF74DFF002811D0A08AA17D884249
:10E2500004D221002800FFF74FFF08E08E20400085
:10E260002F50A17D002902D02000FFF773FFA221CB
:10E2700049002800FFF734FF002811D08E2040000D
:10E2800028188762A07E002801D001202860E07D48
:10E29000002805D0E775E268617E2000FFF74FFF98
:10E2A00005B0F0BD80B502490248FFF765FF01BD2A
:10E2B0007820002000200040002903D1504A80002F
:10E2C00011507047012181404E48016070470000A5
:10E2D000FA21890048430FD04B4909684B4A00BFD7
:10E2E00000BF00BF00BF00BF00BF00BF00BF914222
:10E2F00000D000BF0138F2D1704738B592B06846FF
:10E3000059210180424C21001C310291172181804A
:10E310003C2103A8FEF7C2FF002503A805700421D5
:10E32000C17068460C90002103A8FEF762FD00282A
:10E3300001D0FEF77BFF18212000FEF7AFFF03207E
:10E34000207065602572A0202082658213B030BDE8
:10E350002F48806970470000F8B586B02D48FEF759
:10E36000BBFF002801D0FEF761FF00BF36A00068A8
:10E370000090274F00234822390034316846FFF7C8
:10E3800037FC002801D0FEF751FF01AA0021002030
:10E39000FFF760FC002801D0FEF748FF01A8FFF757
:10E3A0007BFC002801D0FEF741FFFFF7A6FF00BF6E
:10E3B0001AA10320FEF7FAFF380073DF002801D00E
:10E3C000FEF734FF01211D20FFF776FF124EFA24DD
:10E3D000A4008025AD0500BF17A10320FEF7E6FFCE
:10E3E000FFF73AF80028FBD175602000FFF770FFB7
:10E3F00035602000FFF76CFFB869401CB861EAE7A0
:10E400000007005018050050EC1800200024F4000C
:10E410007018002051E30100080500503A494E46AB
:10E420004F3A424C4520426561636F6E20737461C0
:10E43000727465640D0A00003A494E464F3A4865C9
:10E440006C6C6F210D0A00000100000718B5F02068
:10E450000F2228490B78012B1BD14B68134018D190
:10E460008B68034202D1CC6804400CD0F0241C40DD
:10E47000102C02D1CC68044005D00340302B08D1C9
:10E48000CB68034005D11C4B1C4C2360E30B1C4C98
:10E4900023600B78012B0CD14B68134009D18B689A
:10E4A0000340402B05D1CB68034002D10123154C1A
:10E4B00023600B78012B1BD14B681A4018D18A6856
:10E4C000F0231340A02B02D1CB68034005D00240BB
:10E4D000D02A0DD1C96808400AD10B48016801292A
:10E4E00004D00A49016001680129FCD1C0214161C1
:10E4F00011BD0000E00F00F0DFFF07C00405004081
:10E50000186C00400806004000EC064075930000BF
:10E5100070B40123002413E00168001D194202D0E9
:10E520004D466D1E49190C60091D121F042AFAD2AE
:10E530000D00960701D50C80AD1C1A4000D02C7040
:10E540000268001D002AE7D170BC704730B5016831
:10E550004118446862088A188368E4070DD54C4660
:10E560001B190AE00C7864B2491C0D78491C1D7017
:10E570005B1C002C05D5641CF9D19142F2D10C3002
:10E5800030BD641EF1D5F8E70321064802680A434E
:10E590000260054802680A43026004488047044854
:10E5A0000047000024050040540500404DE40100F0
:10E5B00091E6010010B5074979441831064C7C44B6
:10E5C000163404E0081D0A68891888470100A14232
:10E5D000F8D110BD080000002400000035FFFFFF47
:10E5E0005C070000701900200000000061FFFFFFC1
:10E5F000D200000004010000701800200120C04675
:10E60000002801D0FFF7D6FF00BF00BF002000BFE9
:10E6100000BFFFF7A1FE00F000F880B500F002F89F
:10E6200001BDFEE707463846FEF758F9FBE782686A
:10E63000521C82604268002A06D00268531C0360A4
:10E6400011704168491E41607047FF2902D90020BE
:10E65000C04370470170012070470078401E804120
:10E66000C043C00F7047FEE74150505F4552524FC4
:10E67000523A4552524F523A466174616C0D0A004B
:10E680006E616E004E414E00696E6600494E460056
:10E6900000BF00BF00BF00BFFFF7B0FF00002E00AB
:10E6A0004300FEE7FEE7FEE7FEE7FEE7FEE7FEE7E4
:10E6B000FEE7FEE7FEE7FEE7FEE7FEE7FEE7FEE732
:10E6C000FEE7E400160215011223344556677889E7
:10E6D0009AABBCCDDEEFF001020304C3B6001E24EA
:10E6E000F4009CE601009CE601009CE601009CE62B
:10E6F00001009CE601009CE601009CE60100F8FF99
:10E700000B9EE601009CE601009CE60100FAFF0674
:10E710000000A0E6010001FD0003F0180020FC004D
:10E7200002C3C001FB0006BDC00100D9C001FB004F
:10E7300002C1C001F300025BE601FB00044BE601ED
:04E740000001F900DB
:040000050001E6917F
:00000001FF
